{
  "transactions": [
    {
      "hash": "0xe663b75fa460d950ca05bd4e107512d56b8a9076ad1d77d7d1bb68dea57a2b90",
      "transactionType": "CALL",
      "contractName": null,
      "contractAddress": "0x779877a7b0d9e8603169ddbd7836e478b4624789",
      "function": "transferAndCall(address,uint256,bytes)",
      "arguments": [
        "0x9DdfaCa8183c41ad55329BdeeD9F6A8d53168B1B",
        "3000000000000000000",
        "0xb0701588e26840276cc8137d949797e65c35fc1f41aba85fef546063ac961eb4"
      ],
      "transaction": {
        "from": "0x65cd26ab04cfda59c62c2338417ec7091a72cbf2",
        "to": "0x779877a7b0d9e8603169ddbd7836e478b4624789",
        "gas": "0x1c1ff",
        "value": "0x0",
        "input": "0x4000aea00000000000000000000000009ddfaca8183c41ad55329bdeed9f6a8d53168b1b00000000000000000000000000000000000000000000000029a2241af62c000000000000000000000000000000000000000000000000000000000000000000600000000000000000000000000000000000000000000000000000000000000020b0701588e26840276cc8137d949797e65c35fc1f41aba85fef546063ac961eb4",
        "nonce": "0xd",
        "chainId": "0xaa36a7"
      },
      "additionalContracts": [],
      "isFixedGasLimit": false
    }
  ],
  "receipts": [
    {
      "status": "0x1",
      "cumulativeGasUsed": "0xff3f69",
      "logs": [
        {
          "address": "0x779877a7b0d9e8603169ddbd7836e478b4624789",
          "topics": [
            "0xddf252ad1be2c89b69c2b068fc378daa952ba7f163c4a11628f55a4df523b3ef",
            "0x00000000000000000000000065cd26ab04cfda59c62c2338417ec7091a72cbf2",
            "0x0000000000000000000000009ddfaca8183c41ad55329bdeed9f6a8d53168b1b"
          ],
          "data": "0x00000000000000000000000000000000000000000000000029a2241af62c0000",
          "blockHash": "0xec93e68237ec6a2f4d36df8c3601354e8d0e12f4134ae7468081f1dd948b7f2f",
          "blockNumber": "0x76dc33",
          "transactionHash": "0xe663b75fa460d950ca05bd4e107512d56b8a9076ad1d77d7d1bb68dea57a2b90",
          "transactionIndex": "0x9c",
          "logIndex": "0xa7",
          "removed": false
        },
        {
          "address": "0x779877a7b0d9e8603169ddbd7836e478b4624789",
          "topics": [
            "0xe19260aff97b920c7df27010903aeb9c8d2be5d310a2c67824cf3f15396e4c16",
            "0x00000000000000000000000065cd26ab04cfda59c62c2338417ec7091a72cbf2",
            "0x0000000000000000000000009ddfaca8183c41ad55329bdeed9f6a8d53168b1b"
          ],
          "data": "0x00000000000000000000000000000000000000000000000029a2241af62c000000000000000000000000000000000000000000000000000000000000000000400000000000000000000000000000000000000000000000000000000000000020b0701588e26840276cc8137d949797e65c35fc1f41aba85fef546063ac961eb4",
          "blockHash": "0xec93e68237ec6a2f4d36df8c3601354e8d0e12f4134ae7468081f1dd948b7f2f",
          "blockNumber": "0x76dc33",
          "transactionHash": "0xe663b75fa460d950ca05bd4e107512d56b8a9076ad1d77d7d1bb68dea57a2b90",
          "transactionIndex": "0x9c",
          "logIndex": "0xa8",
          "removed": false
        },
        {
          "address": "0x9ddfaca8183c41ad55329bdeed9f6a8d53168b1b",
          "topics": [
            "0x1ced9348ff549fceab2ac57cd3a9de38edaaab274b725ee82c23e8fc8c4eec7a",
            "0xb0701588e26840276cc8137d949797e65c35fc1f41aba85fef546063ac961eb4"
          ],
          "data": "0x000000000000000000000000000000000000000000000000000000000000000000000000000000000000000000000000000000000000000029a2241af62c0000",
          "blockHash": "0xec93e68237ec6a2f4d36df8c3601354e8d0e12f4134ae7468081f1dd948b7f2f",
          "blockNumber": "0x76dc33",
          "transactionHash": "0xe663b75fa460d950ca05bd4e107512d56b8a9076ad1d77d7d1bb68dea57a2b90",
          "transactionIndex": "0x9c",
          "logIndex": "0xa9",
          "removed": false
        }
      ],
      "logsBloom": "0x00000004800000000000000080000000000000000020000000000000020000000000000000000000000000000000000000000000000000000000000000000000000000000000000000000008000000000000000000000000000020000020000008000000000000000000000000000000000000000000000000000010000040000000000000000000000000410000800000000020000000000000000000000000000000000000000000000000010000000200000000000000000004000000000000040002000000000000000000000000000000000000000100000000000000000010000000000000800000000000000000000000000000000000000000000000",
      "type": "0x2",
      "transactionHash": "0xe663b75fa460d950ca05bd4e107512d56b8a9076ad1d77d7d1bb68dea57a2b90",
      "transactionIndex": "0x9c",
      "blockHash": "0xec93e68237ec6a2f4d36df8c3601354e8d0e12f4134ae7468081f1dd948b7f2f",
      "blockNumber": "0x76dc33",
      "gasUsed": "0x133b1",
      "effectiveGasPrice": "0x533d2ddcb",
      "from": "0x65cd26ab04cfda59c62c2338417ec7091a72cbf2",
      "to": "0x779877a7b0d9e8603169ddbd7836e478b4624789",
      "contractAddress": null
    }
  ],
  "libraries": [],
  "pending": [],
  "returns": {},
  "timestamp": 1740572714,
  "chain": 11155111,
  "commit": "05d4a3f"
}